:020000040800F2
:100000000050002085120008D9100008E1100008F7
:10001000E9100008F1100008F910000800000000C5
:1000200000000000000000000000000001110008B6
:100030000D1100080000000019110008251100082A
:10004000CD120008CD120008CD120008CD12000814
:10005000CD120008CD120008CD120008CD12000804
:10006000CD120008CD120008CD120008CD120008F4
:10007000CD120008CD120008CD120008CD120008E4
:10008000CD120008CD120008CD120008CD120008D4
:10009000CD120008CD120008CD120008CD120008C4
:1000A000CD120008CD120008CD120008CD120008B4
:1000B000CD120008CD120008CD120008CD120008A4
:1000C000CD120008CD120008CD120008CD12000894
:1000D000CD120008CD120008CD120008CD12000884
:1000E000CD120008CD120008CD120008000000005B
:1000F0000000000000000000000000000000000000
:0C01000000000000000000005FF808F1A3
:1001100010B5054C237833B9044B13B10448AFF341
:1001200000800123237010BD6C000020000000003F
:100130008C38000808B5034B1BB103490348AFF3E3
:10014000008008BD00000000700000208C3800080E
:1001500081F0004102E000BF83F0004330B54FEA78
:1001600041044FEA430594EA050F08BF90EA020FE5
:100170001FBF54EA000C55EA020C7FEA645C7FEA78
:10018000655C00F0E2804FEA5454D4EB5555B8BF9B
:100190006D420CDD2C4480EA020281EA030382EA0C
:1001A000000083EA010180EA020281EA0303362D9E
:1001B00088BF30BD11F0004F4FEA01314FF4801C71
:1001C0004CEA113102D0404261EB410113F0004F83
:1001D0004FEA03334CEA133302D0524263EB43033A
:1001E00094EA050F00F0A780A4F10104D5F1200ED8
:1001F0000DDB02FA0EFC22FA05F2801841F1000133
:1002000003FA0EF2801843FA05F359410EE0A5F106
:1002100020050EF1200E012A03FA0EFC28BF4CF037
:10022000020C43FA05F3C01851EBE37101F00045ED
:1002300007D54FF0000EDCF1000C7EEB00006EEBFA
:100240000101B1F5801F1BD3B1F5001F0CD3490884
:100250005FEA30004FEA3C0C04F101044FEA4452DB
:1002600012F5800F80F09A80BCF1004F08BF5FEA62
:10027000500C50F1000041EB045141EA050130BD42
:100280005FEA4C0C404141EB0101013C28BFB1F554
:10029000801FE9D291F0000F04BF01460020B1FA9F
:1002A00081F308BF2033A3F10B03B3F120020CDA72
:1002B0000C3208DD02F1140CC2F10C0201FA0CF050
:1002C00021FA02F10CE002F11402D8BFC2F1200CB5
:1002D00001FA02F120FA0CFCDCBF41EA0C0190406B
:1002E000E41AA2BF01EB0451294330BD6FEA0404B4
:1002F0001F3C1CDA0C340EDC04F11404C4F120029F
:1003000020FA04F001FA02F340EA030021FA04F3B0
:1003100045EA030130BDC4F10C04C4F1200220FA07
:1003200002F001FA04F340EA0300294630BD21FA45
:1003300004F0294630BD94F0000F83F4801306BF0B
:1003400081F480110134013D4EE77FEA645C18BFFF
:100350007FEA655C29D094EA050F08BF90EA020F96
:1003600005D054EA000C04BF1946104630BD91EA8E
:10037000030F1EBF0021002030BD5FEA545C05D191
:100380004000494128BF41F0004130BD14F58004D0
:100390003CBF01F5801130BD01F0004545F0FE4144
:1003A00041F470014FF0000030BD7FEA645C1ABF79
:1003B000194610467FEA655C1CBF0B46024650EAB0
:1003C000013406BF52EA033591EA030F41F40021DC
:1003D00030BD00BF90F0000F04BF0021704730B562
:1003E0004FF4806404F132044FF000054FF0000137
:1003F00050E700BF90F0000F04BF0021704730B5F8
:100400004FF4806404F1320410F0004548BF4042CC
:100410004FF000013EE700BF42004FEAE2014FEA21
:1004200031014FEA02701FBF12F07F4393F07F4FFC
:1004300081F06051704732F07F4208BF704793F0FF
:100440007F4F04BF41F40021704730B54FF4607412
:1004500001F0004521F000411CE700BF50EA010215
:1004600008BF704730B54FF000050AE050EA0102BE
:1004700008BF704730B511F0004502D5404261EB2E
:1004800041014FF4806404F132045FEA915C3FF46F
:10049000D8AE4FF003025FEADC0C18BF03325FEA0C
:1004A000DC0C18BF033202EBDC02C2F1200300FABD
:1004B00003FC20FA02F001FA03FE40EA0E0021FAE2
:1004C00002F11444BDE600BF70B54FF0FF0C4CF4D0
:1004D000E06C1CEA11541DBF1CEA135594EA0C0F82
:1004E00095EA0C0F00F0DEF82C4481EA030621EABD
:1004F0004C5123EA4C5350EA013518BF52EA0335F8
:1005000041F4801143F4801338D0A0FB02CE4FF0A9
:100510000005E1FB02E506F00042E0FB03E54FF0D9
:100520000006E1FB03569CF0000F18BF4EF0010ED1
:10053000A4F1FF04B6F5007F64F5407404D25FEACD
:100540004E0E6D4146EB060642EAC62141EA555180
:100550004FEAC52040EA5E504FEACE2EB4F1FD0CC2
:1005600088BFBCF5E06F1ED8BEF1004F08BF5FEA40
:10057000500E50F1000041EB045170BD06F00046F2
:1005800046EA010140EA020081EA0301B4EB5C049F
:10059000C2BFD4EB0C0541EA045170BD41F4801197
:1005A0004FF0000E013C00F3AB8014F1360FDEBFBC
:1005B000002001F0004170BDC4F10004203C35DA98
:1005C0000C341BDC04F11404C4F1200500FA05F31B
:1005D00020FA04F001FA05F240EA020001F00042BC
:1005E00021F0004110EBD37021FA04F642EB060132
:1005F0005EEA430E08BF20EAD37070BDC4F10C045C
:10060000C4F1200500FA04F320FA05F001FA04F21F
:1006100040EA020001F0004110EBD37041F100010B
:100620005EEA430E08BF20EAD37070BDC4F1200516
:1006300000FA05F24EEA020E20FA04F301FA05F27E
:1006400043EA020321FA04F001F0004121FA04F226
:1006500020EA020000EBD3705EEA430E08BF20EAF6
:10066000D37070BD94F0000F0FD101F00046400030
:1006700041EB010111F4801F08BF013CF7D041EAB2
:10068000060195F0000F18BF704703F000465200B6
:1006900043EB030313F4801F08BF013DF7D043EA87
:1006A0000603704794EA0C0F0CEA135518BF95EA3D
:1006B0000C0F0CD050EA410618BF52EA4306D1D1C4
:1006C00081EA030101F000414FF0000070BD50EAE3
:1006D000410606BF1046194652EA430619D094EA6D
:1006E0000C0F02D150EA013613D195EA0C0F05D157
:1006F00052EA03361CBF104619460AD181EA0301AB
:1007000001F0004141F0FE4141F470014FF0000062
:1007100070BD41F0FE4141F4780170BD70B54FF0FD
:10072000FF0C4CF4E06C1CEA11541DBF1CEA13557D
:1007300094EA0C0F95EA0C0F00F0A7F8A4EB05045F
:1007400081EA030E52EA03354FEA013100F0888056
:100750004FEA03334FF0805545EA131343EA12631F
:100760004FEA022245EA111545EA10654FEA0026D4
:100770000EF000419D4208BF964244F1FD0404F58D
:10078000407402D25B084FEA3202B61A65EB0305E9
:100790005B084FEA32024FF480104FF4002CB6EBA6
:1007A000020E75EB030E22BFB61A754640EA0C0026
:1007B0005B084FEA3202B6EB020E75EB030E22BF66
:1007C000B61A754640EA5C005B084FEA3202B6EBA7
:1007D000020E75EB030E22BFB61A754640EA9C0066
:1007E0005B084FEA3202B6EB020E75EB030E22BF36
:1007F000B61A754640EADC0055EA060E18D04FEAF4
:10080000051545EA16754FEA06164FEAC30343EA93
:1008100052734FEAC2025FEA1C1CC0D111F4801F60
:100820000BD141EA00014FF000004FF0004CB6E759
:1008300011F4801F04BF01430020B4F1FD0C88BFF8
:10084000BCF5E06F3FF6AFAEB5EB030C04BFB6EB03
:10085000020C5FEA500C50F1000041EB045170BDF6
:100860000EF0004E4EEA113114EB5C04C2BFD4EB23
:100870000C0541EA045170BD41F480114FF0000EA7
:10088000013C90E645EA060E8DE60CEA135594EA23
:100890000C0F08BF95EA0C0F3FF43BAF94EA0C0F26
:1008A0000AD150EA01347FF434AF95EA0C0F7FF49B
:1008B00025AF104619462CE795EA0C0F06D152EAEF
:1008C00003353FF4FDAE1046194622E750EA4106D3
:1008D00018BF52EA43067FF4C5AE50EA41047FF4E4
:1008E0000DAF52EA43057FF4EBAE12E74A0011D296
:1008F00012F5001211D20DD56FF47873B3EB62527A
:100900000ED44FEAC12343F0004343EA505323FA85
:1009100002F070474FF00000704750EA013002D1FA
:100920004FF0FF3070474FF00000704780B588B03F
:1009300000AF07F1100300221A605A609A60DA6073
:10094000334B9B69324A43F010039361304B9B69F0
:1009500003F01003FB60FB682D4B9B692C4A43F0AE
:10096000200393612A4B9B6903F02003BB60BB68A3
:10097000274B9B69264A43F004039361244B9B69F0
:1009800003F004037B607B68214B9B69204A43F0A2
:10099000080393611E4B9B6903F008033B603B68AF
:1009A00000224FF400511B4800F097FF002208215D
:1009B000194800F092FF4FF400533B6101237B6123
:1009C0000023BB610223FB6107F1100319461148A4
:1009D00000F0E8FD08233B6101237B610023BB613C
:1009E0000223FB6107F1100319460B4800F0DAFD02
:1009F00010233B6100237B610023BB6107F11003DF
:100A00001946054800F0CEFD00BF2037BD4680BD29
:100A100000100240001001400008014080B500AF06
:100A2000124B134A1A60114B124A5A600F4B0022A4
:100A30009A600E4B0022DA600C4B4FF480421A6130
:100A40000A4B00225A61094B00229A61074B00228F
:100A5000DA61064B00221A62044800F057FF034691
:100A6000002B01D000F036F900BF80BD88000020C7
:100A700000540040801A060080B588B000AF78604E
:100A800007F1100300221A605A609A60DA607B68EE
:100A90001B68154A934223D1144B9B69134A43F0B8
:100AA00008039361114B9B6903F00803FB60FB682B
:100AB000C0233B6112237B610323FB6107F1100319
:100AC00019460B4800F06EFD084BDB69074A43F4FA
:100AD0000013D361054BDB6903F40013BB60BB68F3
:100AE00000BF2037BD4680BD0054004000100240CA
:100AF000000C01400000000098B500AF00F0E8FBDA
:100B000000F0ACF8FFF712FFFFF788FF00F04CFB96
:100B100001220821464800F0E0FE464B1B680022F7
:100B20005A6200BF434B1B685B6A092BFAD900224B
:100B300008213F4800F0D1FE00F022FC03463E4A67
:100B4000136000BF10213A4800F0B0FE0346002BAE
:100B500008D1394B1B6803F10A0400F011FC03466D
:100B60009C42EFD8334B1B685B6A344A136000F039
:100B700007FC0346304A136000BF10212C4800F0E8
:100B800095FE0346002B08D02B4B1B6803F1320463
:100B900000F0F6FB03469C42EFD8264B1B685B6ACD
:100BA000274A1360264B1A68244B1B68D31A184631
:100BB000FFF710FC1CA3D3E90023FFF785FC0246D6
:100BC0000B46104619464FF000024FF08043FFF7E6
:100BD000A5FD02460B4610461946FFF787FE034661
:100BE0009AB2184B1A800021142000F005F9012256
:100BF0001549164800F094F9124B1B881A461449FF
:100C0000144802F093F91E21372000F0F5F8012274
:100C10001149104800F084F900F062F8322000F029
:100C2000B9FB75E7AFF300809CC420B07268A13FA8
:100C30000008014008050020DC000020E000002042
:100C4000E4000020E800002000000020A438000894
:100C5000B0380008EC0000200800002080B590B0FB
:100C600000AF07F1180328220021184602F080F98E
:100C70003B1D00221A605A609A60DA601A610223F2
:100C8000BB610123BB621023FB6200237B6307F17E
:100C90001803184601F0D6FA0346002B01D000F0E5
:100CA00019F80F237B600023BB600023FB604FF427
:100CB00080633B6100237B613B1D0021184601F0EE
:100CC00043FD0346002B01D000F004F800BF40377D
:100CD000BD4680BD80B400AF72B600BF00BFFDE767
:100CE00080B582B000AF0023FB711DE0FB79503B63
:100CF000DBB21A460021782000F09EF90022002184
:100D0000782000F099F910220021782000F094F961
:100D1000FB79DB01084A1A4480234021782000F047
:100D200025F9FB790133FB71FB79072BDED900BF75
:100D300000BF0837BD4680BDFC00002080B483B0F2
:100D400000AF0346FB800B46BB801346FB70FB885D
:100D50007F2B48D8BB883F2B45D8254B1B79002BD0
:100D600006D0FB78002B0CBF01230023DBB2FB7005
:100D7000FB78012B1AD1FA88BB88DB0898B20346AE
:100D8000DB0113441B4AD35C5AB2BB8803F0070350
:100D9000012101FA03F35BB2134359B2FA88034607
:100DA000DB011344C9B2134AD1541DE0FA88BB8851
:100DB000DB0898B20346DB0113440E4AD35C5AB2F7
:100DC000BB8803F00703012101FA03F35BB2DB43A5
:100DD0005BB2134059B2FA880346DB011344C9B22F
:100DE000044AD15400E000BF0C37BD4680BC7047B8
:100DF000FC040020FC00002080B483B000AF034658
:100E00000A46FB801346BB80054AFB881380044AD0
:100E1000BB88538000BF0C37BD4680BC704700BF05
:100E2000FC04002080B586B000AF03463960FB713A
:100E30001346BB71394B1B881A463B681B78134419
:100E40007F2B07DC354B5B881A463B685B78134485
:100E50003F2B01DD00235DE000237B614BE03B681D
:100E60005A68FB79203B3968497801FB03F319463E
:100E70007B690B445B0013441B88FB6000233B61D0
:100E800030E0FA683B6902FA03F303F40043002BF5
:100E900010D0224B1A883B699BB2134498B21F4B67
:100EA0005A887B699BB213449BB2BA791946FFF703
:100EB00045FF14E0194B1A883B699BB2134498B262
:100EC000164B5A887B699BB2134499B2BB79002BAD
:100ED0000CBF01230023DBB21A46FFF72FFF3B694B
:100EE00001333B613B681B781A463B699342C8D388
:100EF0007B6901337B613B685B781A467B6993426F
:100F0000ADD3064B1B883A68127813449AB2034B50
:100F10001A80FB7918461837BD4680BDFC040020B6
:100F200080B584B000AFF860B9601346FB7112E081
:100F3000FB681B78FA79B9681846FFF773FF034618
:100F40001A46FB681B789A4202D0FB681B7808E0BF
:100F5000FB680133FB60FB681B78002BE8D1FB6862
:100F60001B7818461037BD4680BD000090B5C7B04D
:100F700002AF0446084607F58871A1F588710A603A
:100F8000194607F58873A3F2091322461A7007F56C
:100F90008873A3F5857302461A7007F58873A3F565
:100FA00086730A461A8007F58873A3F5827307F5DE
:100FB0008872A2F5857212781A70002387F80F31B3
:100FC00015E097F80F3107F58872A2F5887212685C
:100FD0001A4497F80F310133117807F58872A2F59A
:100FE0008272D15497F80F31013387F80F3197F897
:100FF0000F319BB207F58872A2F5867212889A4269
:10100000DFD807F58873A3F209131B7899B207F5A7
:101010008873A3F586731B8801339BB207F10C021A
:101020000A200090034800F0B5FD00BF07F58A775D
:10103000BD4690BD8800002080B586B002AF034653
:10104000FB710B46BB7113467B71BB793B737B799C
:101050007B73FB7999B207F10C020A2300930223F8
:10106000034800F097FD00BF1037BD4680BD00BFAC
:101070008800002080B485B000AF154B9B69144AEE
:1010800043F001039361124B9B6903F00103BB60C2
:10109000BB680F4BDB690E4A43F08053D3610C4BA6
:1010A000DB6903F080537B607B680A4B5B68FB6005
:1010B000FB6823F0E063FB60FB6843F00073FB60B8
:1010C000044AFB68536000BF1437BD4680BC7047BC
:1010D000001002400000014080B400AF00BFFDE7F7
:1010E00080B400AF00BFFDE780B400AF00BFFDE7F4
:1010F00080B400AF00BFFDE780B400AF00BFFDE7E4
:1011000080B400AF00BFBD4680BC704780B400AF64
:1011100000BFBD4680BC704780B400AF00BFBD4675
:1011200080BC704780B500AF00F018F900BF80BDEB
:1011300080B586B000AF7860144A154BD31A7B6136
:101140007B693B61134B1B68002B02D1114B124A88
:101150001A60104B1A687B6813443A699A4207D2A6
:1011600001F00EFF03460C221A604FF0FF3309E036
:10117000084B1B68FB60074B1A687B681344054AE1
:101180001360FB6818461837BD4680BD005000202C
:101190000004000004050020A006002080B400AF79
:1011A00000BFBD4680BC704780B586B000AF07F178
:1011B000080300221A605A609A60DA603B460022F7
:1011C0001A605A601E4B1F4A1A601D4B47225A6014
:1011D0001B4B00229A601A4B4FF6FF72DA60184BD5
:1011E00000221A61164B00225A61154B00229A61A7
:1011F000134801F023FC0346002B01D0FFF76AFDE2
:101200004FF48053BB6007F1080319460C4801F006
:1012100064FC0346002B01D0FFF75CFD00233B601C
:1012200000237B603B461946054801F021FE03463A
:10123000002B01D0FFF74EFD00BF1837BD4680BD23
:1012400008050020002C014080B485B000AF786014
:101250007B681B68094A93420BD1094B9B69084A7A
:1012600043F400639361064B9B6903F40063FB60E6
:10127000FB6800BF1437BD4680BC7047002C01409E
:1012800000100240FFF78AFF0B480C490C4A00236C
:1012900002E0D458C4500433C4188C42F9D3094A2C
:1012A000094C002301E013600432A242FBD301F099
:1012B0006DFEFFF721FC7047000000206C0000204D
:1012C000C85900086C0000209C060020FEE70000C2
:1012D00080B500AF084B1B68074A43F0100313604A
:1012E000032000F02BF90F2000F008F8FFF7C2FEF2
:1012F0000023184680BD00BF0020024080B582B0A8
:1013000000AF7860124B1A68124B1B7819464FF4E5
:101310007A73B3FBF1F3B2FBF3F3184600F035F93F
:101320000346002B01D001230EE07B680F2B0AD867
:10133000002279684FF0FF3000F00BF9064A7B6815
:101340001360002300E0012318460837BD4680BD26
:1013500010000020180000201400002080B400AF0E
:10136000054B1B781A46054B1B681344034A136050
:1013700000BFBD4680BC704718000020500500200B
:1013800080B400AF024B1B681846BD4680BC704756
:101390005005002080B584B000AF7860FFF7F0FF03
:1013A000B8607B68FB60FB68B3F1FF3F05D00A4B78
:1013B0001B781A46FB681344FB6000BFFFF7E0FF91
:1013C0000246BB68D31AFA689A42F7D800BF00BF3A
:1013D0001037BD4680BD00BF1800002080B485B026
:1013E00000AF78607B6803F00703FB600C4BDB68A1
:1013F000BB60BA684FF6FF031340BB60FB681A027C
:10140000BB68134343F0BF6343F40033BB60044A3B
:10141000BB68D36000BF1437BD4680BC704700BFB7
:1014200000ED00E080B400AF044BDB681B0A03F062
:1014300007031846BD4680BC704700BF00ED00E0C2
:1014400080B483B000AF03463960FB7197F9073071
:10145000002B0ADB3B68DAB20C4997F9073012011E
:10146000D2B20B4483F800230AE03B68DAB20849A1
:10147000FB7903F00F03043B1201D2B20B441A763E
:1014800000BF0C37BD4680BC704700BF00E100E0E4
:1014900000ED00E080B489B000AFF860B9607A6018
:1014A000FB6803F00703FB61FB69C3F10703042B2F
:1014B00028BF0423BB61FB690433062B02D9FB69F7
:1014C000033B00E000237B614FF0FF32BB6902FA6F
:1014D00003F3DA43BB681A407B699A404FF0FF314F
:1014E0007B6901FA03F3D9437B680B401343184629
:1014F0002437BD4680BC704780B582B000AF7860AD
:101500007B68013BB3F1807F01D301230FE00A4ADE
:101510007B68013B53600F214FF0FF30FFF790FFD6
:10152000054B00229A60044B07221A6000231846DC
:101530000837BD4680BD00BF10E000E080B582B036
:1015400000AF78607868FFF749FF00BF0837BD46F5
:1015500080BD80B586B000AF0346B9607A60FB738A
:1015600000237B61FFF75EFF78617A68B96878696C
:10157000FFF790FF024697F90F3011461846FFF724
:101580005FFF00BF1837BD4680BD80B582B000AF99
:1015900078607868FFF7B0FF034618460837BD4605
:1015A00080BD000080B48BB000AF7860396000234C
:1015B0007B6200233B6269E101227B6A02FA03F34A
:1015C000FB613B681B68FA691340BB61BA69FB6940
:1015D0009A4240F058813B685B689A4A93425ED0D9
:1015E000984A934275D8984A934258D0964A934263
:1015F0006FD8964A934252D0944A934269D8944AFB
:1016000093424CD0924A934263D8924A934246D036
:10161000904A93425DD8122B2AD8122B59D801A296
:1016200052F823F09F160008791600088B16000860
:10163000CD160008D3160008D3160008D3160008EC
:10164000D3160008D3160008D3160008D3160008D6
:10165000D3160008D3160008D3160008D3160008C6
:10166000D3160008D3160008811600089516000846
:10167000794A934213D02CE03B68DB683B6229E057
:101680003B68DB6804333B6224E03B68DB6808337B
:101690003B621FE03B68DB680C333B621AE03B684F
:1016A0009B68002B02D104233B6213E03B689B68DC
:1016B000012B05D108233B627B68FA691A6109E0B6
:1016C00008233B627B68FA695A6103E000233B62AE
:1016D00000E000BFBB69FF2B01D87B6801E07B689D
:1016E00004337B61BB69FF2B02D87B6A9B0002E05D
:1016F0007B6A083B9B003B617B691A680F213B6951
:1017000001FA03F3DB431A40396A3B6901FA03F338
:101710001A437B691A603B685B6803F08053002BB7
:1017200000F0B1804D4B9B694C4A43F0010393613B
:101730004A4B9B6903F00103BB60BB68484A7B6A64
:101740009B08023352F82330FB607B6A03F00303EB
:101750009B000F2202FA03F3DB43FA681340FB609D
:101760007B68404A934213D07B683F4A93420DD036
:101770007B683E4A934207D07B683D4A934201D141
:10178000032306E0042304E0022302E0012300E037
:1017900000237A6A02F0030292009340FA6813432E
:1017A000FB602F497B6A9B080233FA6841F82320CB
:1017B0003B685B6803F48013002B06D02D4B9A68BE
:1017C0002C49BB6913438B6006E02A4B9A68BB69BE
:1017D000DB43284913408B603B685B6803F40013CC
:1017E000002B06D0234BDA682249BB691343CB6038
:1017F00006E0204BDA68BB69DB431E491340CB602F
:101800003B685B6803F40033002B06D0194B5A6821
:101810001849BB6913434B6006E0164B5A68BB6915
:10182000DB43144913404B603B685B6803F480332F
:10183000002B21D00F4B1A680E49BB6913430B6074
:1018400021E000BF00003210000031100000221023
:1018500000002110000012100000111000100240C2
:101860000000014000080140000C01400010014050
:1018700000140140000401400B4B1A68BB69DB43B4
:10188000094913400B607B6A01337B623B681A682D
:101890007B6A22FA03F3002B7FF48EAE00BF00BFF9
:1018A0002C37BD4680BC70470004014080B485B031
:1018B00000AF78600B467B807B689A687B8813401A
:1018C000002B02D00123FB7301E00023FB73FB7BA1
:1018D00018461437BD4680BC704780B483B000AF53
:1018E00078600B467B8013467B707B78002B03D09F
:1018F0007A887B681A6103E07B881A047B681A6126
:1019000000BF0C37BD4680BC7047000080B584B076
:1019100000AF78607B68002B01D101232BE17B684D
:1019200093F83D30DBB2002B06D17B68002283F8B0
:101930003C207868FFF7A0F87B68242283F83D20DC
:101940007B681B681A687B681B6822F001021A60BA
:101950007B681B681A687B681B6842F400421A6047
:101960007B681B681A687B681B6822F400421A6057
:1019700001F032F8F8607B685B68814A934207D8CF
:10198000FB68804A934294BF01230023DBB206E048
:10199000FB687D4A934294BF01230023DBB2002BF6
:1019A00001D00123E7E0FB68784AA2FB03239B0CEC
:1019B000BB607B681B685B6823F03F017B681B682A
:1019C000BA680A435A607B681B681B6A23F03F01B0
:1019D0007B685B686A4A934202D8BB68013309E0BE
:1019E000BB684FF4967202FB03F3694AA2FB032320
:1019F0009B0901337A6812680B4313627B681B688A
:101A0000DB6923F44F4222F0FF027B685B685C498C
:101A10008B4219D8FB68591E7B685B685B00B1FB81
:101A2000F3F3591C40F6FC730B40002B0AD0FB6803
:101A3000591E7B685B685B00B1FBF3F30133C3F3B2
:101A40000B0351E004234FE07B689B68002B11D10E
:101A5000FB68581E7B6859680B465B000B44B0FB63
:101A6000F3F30133C3F30B03002B0CBF012300235B
:101A7000DBB212E0FB68581E7B6859680B469B007E
:101A80000B4499000B44B0FBF3F30133C3F30B0396
:101A9000002B0CBF01230023DBB2002B01D001235C
:101AA00022E07B689B68002B0ED1FB68581E7B6888
:101AB00059680B465B000B44B0FBF3F30133C3F3EF
:101AC0000B0343F400430FE0FB68581E7B68596822
:101AD0000B469B000B4499000B44B0FBF3F301331E
:101AE000C3F30B0343F44043796809681343CB61A4
:101AF0007B681B681B6823F0C0017B68DA697B6820
:101B00001B6A1A437B681B680A431A607B681B6860
:101B10009B6823F4034323F0FF037A6811697A6812
:101B2000D26811437A6812680B4393607B681B6824
:101B3000DB6823F0FF017B685A697B689B691A4365
:101B40007B681B680A43DA607B681B681A687B68DD
:101B50001B6842F001021A607B6800221A647B68ED
:101B6000202283F83D207B6800221A637B680022D4
:101B700083F83E20002318461037BD4680BD00BFC5
:101B8000A08601007F841E00FF083D0083DE1B430A
:101B9000D34D621080B588B002AFF8607A601A4603
:101BA0000B467B8113463B81FFF7EAFB7861FB68BC
:101BB00093F83D30DBB2202B40F0E0807B6900934E
:101BC000192301227049F86800F064F90346002BDC
:101BD00001D00223D3E0FB6893F83C30012B01D104
:101BE0000223CCE0FB68012283F83C20FB681B68E1
:101BF0001B6803F00103012B07D0FB681B681A6800
:101C0000FB681B6842F001021A60FB681B681A68D7
:101C1000FB681B6822F400621A60FB68212283F8CB
:101C20003D20FB68102283F83E20FB6800221A64E6
:101C3000FB687A685A62FB683A895A85FB685B8D53
:101C40009AB2FB681A85FB68504ADA6279897B6927
:101C50003A6AF86800F09CF80346002B01D0012393
:101C60008DE000233B61FB681B685B693B61FB689F
:101C70001B689B693B613B6966E07A69396AF86871
:101C800000F022FA0346002B0DD0FB681B6C042BDE
:101C900007D1FB681B681A68FB681B6842F4007276
:101CA0001A6001236BE0FB685B6A1A78FB681B68AB
:101CB0001A61FB685B6A5A1CFB685A62FB685B8DA1
:101CC0009BB2013B9AB2FB685A85FB681B8D013BB6
:101CD0009AB2FB681A85FB681B685B6903F0040312
:101CE000042B1BD1FB681B8D002B17D0FB685B6A94
:101CF0001A78FB681B681A61FB685B6A5A1CFB68F0
:101D00005A62FB685B8D9BB2013B9AB2FB685A85B5
:101D1000FB681B8D013B9AB2FB681A857A69396AA8
:101D2000F86800F019FA0346002B0DD0FB681B6C15
:101D3000042B07D1FB681B681A68FB681B6842F418
:101D400000721A6001231AE0FB681B8D002B94D1EE
:101D5000FB681B681A68FB681B6842F400721A6013
:101D6000FB68202283F83D20FB68002283F83E2098
:101D7000FB68002283F83C20002300E00223184681
:101D80001837BD4680BD00BF020010000000FFFFF5
:101D900080B588B002AFF8607A603B600B467B810B
:101DA000FB68DB6A7B617B69082B06D07B69012BB2
:101DB00003D07B6913F5803F08D1FB681B681A6864
:101DC000FB681B6842F480721A600BE0FB681B6BB7
:101DD000122B07D1FB681B681A68FB681B6842F46A
:101DE00080721A603B6800937B6800224FF00111FB
:101DF000F86800F04FF80346002B0DD0FB681B6815
:101E00001B6803F48073B3F5807F03D1FB684FF444
:101E100000721A64032335E0FB681B69B3F5804F39
:101E200008D17B89DBB21A46FB681B6802F0FE0210
:101E30001A611BE07B89DB11DBB203F00603DBB226
:101E400063F00F03DAB2FB681B681A613B687A68BB
:101E50000E49F86800F098F80346002B01D00123E2
:101E600010E07B89DAB2FB681B681A613B687A680C
:101E70000749F86800F088F80346002B01D00123D9
:101E800000E0002318461837BD4680BD0800010059
:101E90000200010080B584B000AFF860B9603B601B
:101EA0001346FB7148E03B68B3F1FF3F44D0FFF7B6
:101EB00067FA0246BB69D31A3A689A4202D33B6872
:101EC000002B39D1BB681B0CDBB2012B0DD1FB6899
:101ED0001B685B69DA43BB6813409BB2002B0CBFE5
:101EE00001230023DBB21A460CE0FB681B689B69E8
:101EF000DA43BB6813409BB2002B0CBF01230023C5
:101F0000DBB21A46FB799A4216D1FB6800221A63AB
:101F1000FB68202283F83D20FB68002283F83E20E6
:101F2000FB681B6C43F02002FB681A64FB6800220C
:101F300083F83C20012323E0BB681B0CDBB2012BA0
:101F40000DD1FB681B685B69DA43BB6813409BB229
:101F5000002B0CBF01230023DBB21A460CE0FB6808
:101F60001B689B69DA43BB6813409BB2002B0CBF14
:101F700001230023DBB21A46FB799A4293D0002357
:101F800018461037BD4680BD80B584B000AFF860FC
:101F9000B9607A603B6071E0FB681B685B6903F4C1
:101FA0008063B3F5806F23D1FB681B681A68FB68F8
:101FB0001B6842F400721A60FB681B686FF4806251
:101FC0005A61FB6800221A63FB68202283F83D20D7
:101FD000FB68002283F83E20FB681B6C43F0040280
:101FE000FB681A64FB68002283F83C20012367E049
:101FF0007B68B3F1FF3F41D0FFF7C2F902463B686F
:10200000D31A7A689A4202D37B68002B36D1BB6818
:102010001B0CDBB2012B0CD1FB681B685B69DA433C
:10202000BB6813409BB2002B14BF01230023DBB21B
:102030000BE0FB681B689B69DA43BB6813409BB2EB
:10204000002B14BF01230023DBB2002B16D0FB684A
:1020500000221A63FB68202283F83D20FB680022DF
:1020600083F83E20FB681B6C43F02002FB681A6477
:10207000FB68002283F83C20012321E0BB681B0C95
:10208000DBB2012B0CD1FB681B685B69DA43BB68D0
:1020900013409BB2002B14BF01230023DBB20BE0E3
:1020A000FB681B689B69DA43BB6813409BB2002B3B
:1020B00014BF01230023DBB2002B7FF46DAF00239C
:1020C00018461037BD4680BD80B584B000AFF860BB
:1020D000B9607A6034E0F86800F086F80346002BB7
:1020E00001D0012334E0BB68B3F1FF3F28D0FFF7F4
:1020F00047F902467B68D31ABA689A4202D3BB6892
:10210000002B1DD1FB681B685B6903F08003802BEB
:1021100016D0FB6800221A63FB68202283F83D205A
:10212000FB68002283F83E20FB681B6C43F0200212
:10213000FB681A64FB68002283F83C20012307E057
:10214000FB681B685B6903F08003802BC3D100230D
:1021500018461037BD4680BD80B584B000AFF8602A
:10216000B9607A6034E0F86800F03EF80346002B6E
:1021700001D0012334E0BB68B3F1FF3F28D0FFF763
:10218000FFF802467B68D31ABA689A4202D3BB684A
:10219000002B1DD1FB681B685B6903F00403042B53
:1021A00016D0FB6800221A63FB68202283F83D20CA
:1021B000FB68002283F83E20FB681B6C43F0200282
:1021C000FB681A64FB68002283F83C20012307E0C7
:1021D000FB681B685B6903F00403042BC3D1002375
:1021E00018461037BD4680BD80B483B000AF78601C
:1021F0007B681B685B6903F48063B3F5806F1BD158
:102200007B681B686FF480625A617B6800221A63E6
:102210007B68202283F83D207B68002283F83E20E3
:102220007B681B6C43F004027B681A647B680022A5
:1022300083F83C20012300E0002318460C37BD46FC
:1022400080BC704780B586B000AF78607B68002B9B
:1022500001D1012372E27B681B6803F00103002BAC
:1022600000F08780924B5B6803F00C03042B0CD0CA
:102270008F4B5B6803F00C03082B12D18C4B5B680F
:1022800003F48033B3F5803F0BD1894B1B6803F413
:102290000033002B6CD07B685B68002B68D1012376
:1022A0004CE27B685B68B3F5803F06D1804B1B68CE
:1022B0007F4A43F4803313602EE07B685B68002B19
:1022C0000CD17B4B1B687A4A23F480331360784B24
:1022D0001B68774A23F4802313601DE07B685B68EA
:1022E000B3F5A02F0CD1724B1B68714A43F48023C5
:1022F00013606F4B1B686E4A43F4803313600BE02E
:102300006B4B1B686A4A23F480331360684B1B686D
:10231000674A23F4802313607B685B68002B13D02B
:10232000FFF72EF8386108E0FFF72AF802463B690C
:10233000D31A642B01D9032300E25D4B1B6803F41D
:102340000033002BF0D014E0FFF71AF8386108E0F2
:10235000FFF716F802463B69D31A642B01D9032311
:10236000ECE1534B1B6803F40033002BF0D100E089
:1023700000BF7B681B6803F00203002B63D04C4B4B
:102380005B6803F00C03002B0BD0494B5B6803F038
:102390000C03082B1CD1464B5B6803F48033002BE5
:1023A00016D1434B1B6803F00203002B05D07B685A
:1023B0001B69012B01D00123C0E13D4B1B6823F0B9
:1023C000F8027B685B69DB00394913430B603AE034
:1023D0007B681B69002B20D0364B01221A60FEF768
:1023E000CFFF386108E0FEF7CBFF02463B69D31A06
:1023F000022B01D90323A1E12D4B1B6803F002033B
:10240000002BF0D02A4B1B6823F0F8027B685B6935
:10241000DB00274913430B6015E0264B00221A60AE
:10242000FEF7AEFF386108E0FEF7AAFF02463B69FF
:10243000D31A022B01D9032380E11D4B1B6803F043
:102440000203002BF0D17B681B6803F00803002B0C
:102450003AD07B689B69002B19D0174B01221A6078
:10246000FEF78EFF386108E0FEF78AFF02463B69FF
:10247000D31A022B01D9032360E10D4B5B6A03F0F1
:102480000203002BF0D0012000F0BAFA1CE00A4B46
:1024900000221A60FEF774FF38610FE0FEF770FF4C
:1024A00002463B69D31A022B08D9032346E100BF39
:1024B000001002400000424280044242924B5B6A9C
:1024C00003F00203002BE9D17B681B6803F00403CF
:1024D000002B00F0A6800023FB758B4BDB6903F01B
:1024E0008053002B0DD1884BDB69874A43F0805322
:1024F000D361854BDB6903F08053BB60BB6801236C
:10250000FB75824B1B6803F48073002B18D17F4B43
:102510001B687E4A43F480731360FEF731FF386115
:1025200008E0FEF72DFF02463B69D31A642B01D960
:10253000032303E1754B1B6803F48073002BF0D079
:102540007B68DB68012B06D16F4B1B6A6E4A43F038
:10255000010313622DE07B68DB68002B0CD16A4B12
:102560001B6A694A23F001031362674B1B6A664AC0
:1025700023F0040313621CE07B68DB68052B0CD19D
:10258000614B1B6A604A43F0040313625E4B1B6A93
:102590005D4A43F0010313620BE05B4B1B6A5A4A2E
:1025A00023F001031362584B1B6A574A23F00403BC
:1025B00013627B68DB68002B15D0FEF7E1FE386103
:1025C0000AE0FEF7DDFE02463B69D31A41F288328B
:1025D000934201D90323B1E04B4B1B6A03F0020382
:1025E000002BEED014E0FEF7CBFE38610AE0FEF7D8
:1025F000C7FE02463B69D31A41F28832934201D9A1
:1026000003239BE0404B1B6A03F00203002BEED137
:10261000FB7D012B05D13C4BDB693B4A23F080530A
:10262000D3617B68DB69002B00F08780364B5B68E9
:1026300003F00C03082B61D07B68DB69022B46D1C9
:10264000334B00221A60FEF79BFE386108E0FEF76C
:1026500097FE02463B69D31A022B01D903236DE092
:10266000294B1B6803F00073002BF0D17B681B6AB9
:10267000B3F5803F08D1244B5B6823F400327B68BC
:102680009B68214913434B601F4B5B6823F4741212
:102690007B68196A7B685B6A0B431B4913434B6079
:1026A0001B4B01221A60FEF76BFE386108E0FEF753
:1026B00067FE02463B69D31A022B01D903233DE092
:1026C000114B1B6803F00073002BF0D035E0104B6A
:1026D00000221A60FEF754FE386108E0FEF750FE53
:1026E00002463B69D31A022B01D9032326E0064B8D
:1026F0001B6803F00073002BF0D11EE07B68DB69E0
:10270000012B07D1012319E00010024000700040A6
:10271000600042420B4B5B68FB60FB6803F4803255
:102720007B681B6A9A4206D1FB6803F470127B68CF
:102730005B6A9A4201D0012300E000231846183753
:10274000BD4680BD0010024080B584B000AF786007
:1027500039607B68002B01D10123D0E06A4B1B68F4
:1027600003F007033A689A4210D9674B1B6823F0BD
:10277000070265493B6813430B60634B1B6803F01A
:1027800007033A689A4201D00123B8E07B681B68CE
:1027900003F00203002B20D07B681B6803F00403C6
:1027A000002B05D0594B5B68584A43F4E0635360F3
:1027B0007B681B6803F00803002B05D0534B5B6854
:1027C000524A43F460535360504B5B6823F0F0026D
:1027D0007B689B684D4913434B607B681B6803F023
:1027E0000103002B40D07B685B68012B07D1474B6E
:1027F0001B6803F40033002B15D101237FE07B68B5
:102800005B68022B07D1414B1B6803F00073002B60
:1028100009D1012373E03D4B1B6803F00203002B39
:1028200001D101236BE0394B5B6823F003027B6825
:102830005B68364913434B60FEF7A2FDF8600AE07F
:10284000FEF79EFD0246FB68D31A41F2883293429E
:1028500001D9032353E02D4B5B6803F00C027B6826
:102860005B689B009A42EBD1274B1B6803F0070380
:102870003A689A4210D2244B1B6823F0070222497F
:102880003B6813430B60204B1B6803F007033A6857
:102890009A4201D0012332E07B681B6803F00403F5
:1028A000002B08D0194B5B6823F4E0627B68DB687F
:1028B000164913434B607B681B6803F00803002B29
:1028C00009D0124B5B6823F460527B681B69DB0004
:1028D0000E4913434B6000F021F802460B4B5B6836
:1028E0001B0903F00F030A49CB5C22FA03F3094AE0
:1028F0001360094B1B681846FEF700FD00231846BD
:102900001037BD4680BD00BF0020024000100240CD
:1029100060590008100000201400002080B487B027
:1029200000AF0023FB600023BB6000237B6100231A
:102930007B6000233B611E4B5B68FB60FB6803F020
:102940000C03042B02D0082B03D027E0194B3B616A
:1029500027E0FB689B0C03F00F03174AD35C7B60F6
:10296000FB6803F48033002B10D0114B5B685B0CC9
:1029700003F00103114AD35CBB607B680D4A03FB83
:1029800002F2BB68B2FBF3F37B6104E07B680C4AA4
:1029900002FB03F37B617B693B6102E0054B3B611A
:1029A00000BF3B6918461C37BD4680BC704700BF5E
:1029B0000010024000127A00785900088859000877
:1029C00000093D0080B400AF024B1B681846BD46AD
:1029D00080BC70471000002080B500AFFFF7F2FF09
:1029E0000246054B5B681B0A03F007030349CB5CF7
:1029F00022FA03F3184680BD001002407059000807
:102A000080B485B000AF78600A4B1B680A4AA2FB0D
:102A100003235B0A7A6802FB03F3FB6000BFFB68D9
:102A20005A1EFA60002BF9D100BF00BF1437BD4613
:102A300080BC704710000020D34D621080B582B07A
:102A400000AF78607B68002B01D1012341E07B68F7
:102A500093F83D30DBB2002B06D17B68002283F86F
:102A60003C207868FEF7F0FB7B68022283F83D206B
:102A70007B681A687B6804331946104600F0F4F846
:102A80007B68012283F846207B68012283F83E2080
:102A90007B68012283F83F207B68012283F8402075
:102AA0007B68012283F841207B68012283F8422061
:102AB0007B68012283F843207B68012283F844204D
:102AC0007B68012283F845207B68012283F83D2042
:102AD000002318460837BD4680BD80B584B000AFDE
:102AE000786039600023FB737B6893F83C30012BDE
:102AF00001D10223B4E07B68012283F83C207B688B
:102B0000022283F83D207B681B689B68BB60BB6822
:102B100023F07703BB60BB6823F47F43BB607B6813
:102B20001B68BA689A603B681B68B3F5005F3ED0CB
:102B3000B3F5005F00F28780B3F5805F00F0868018
:102B4000B3F5805F7FD8702B1AD0702B7BD8602BA9
:102B500050D0602B77D8502B3CD0502B73D8402BC3
:102B600058D0402B6FD8302B64D0302B6BD8202B13
:102B700060D0202B67D8002B5CD0102B5AD062E09D
:102B80007B6818683B6899683B685A683B68DB68F3
:102B900000F04FF97B681B689B68BB60BB6843F023
:102BA0007703BB607B681B68BA689A604FE07B68FC
:102BB00018683B6899683B685A683B68DB6800F0B6
:102BC00038F97B681B689A687B681B6842F480420E
:102BD0009A603CE07B6818683B6859683B68DB6832
:102BE0001A4600F0AFF87B681B685021184600F0C9
:102BF00006F92CE07B6818683B6859683B68DB681D
:102C00001A4600F0CDF87B681B686021184600F07A
:102C1000F6F81CE07B6818683B6859683B68DB681D
:102C20001A4600F08FF87B681B684021184600F0B8
:102C3000E6F80CE07B681A683B681B68194610468A
:102C400000F0DDF803E00123FB7300E000BF7B68C8
:102C5000012283F83D207B68002283F83C20FB7B27
:102C600018461037BD4680BD80B485B000AF78608F
:102C700039607B681B68FB607B682F4A93420BD0EE
:102C80007B68B3F1804F07D07B682C4A934203D016
:102C90007B682B4A934208D1FB6823F07003FB60EA
:102CA0003B685B68FA681343FB607B68224A934287
:102CB0000BD07B68B3F1804F07D07B681F4A9342EB
:102CC00003D07B681E4A934208D1FB6823F440730B
:102CD000FB603B68DB68FA681343FB60FB6823F02A
:102CE00080023B685B691343FB607B68FA681A608B
:102CF0003B689A687B68DA623B681A687B689A620C
:102D00007B680D4A934203D13B681A697B681A635A
:102D10007B6801225A617B681B6903F00103002B69
:102D200005D07B681B6923F001027B681A6100BF34
:102D30001437BD4680BC7047002C014000040040A1
:102D40000008004080B487B000AFF860B9607A60D6
:102D5000FB681B6A7B61FB681B6A23F00102FB684E
:102D60001A62FB689B693B613B6923F0F0033B619E
:102D70007B681B013A6913433B617B6923F00A03BB
:102D80007B617A69BB6813437B61FB683A699A612E
:102D9000FB687A691A6200BF1C37BD4680BC704769
:102DA00080B487B000AFF860B9607A60FB681B6AD6
:102DB0007B61FB681B6A23F01002FB681A62FB68E8
:102DC0009B693B613B6923F470433B617B681B0358
:102DD0003A6913433B617B6923F0A0037B61BB68C5
:102DE0001B017A6913437B61FB683A699A61FB684E
:102DF0007A691A6200BF1C37BD4680BC704780B438
:102E000085B000AF786039607B689B68FB60FB68C9
:102E100023F07003FB603A68FB68134343F0070339
:102E2000FB607B68FA689A6000BF1437BD4680BCBF
:102E3000704780B487B000AFF860B9607A603B60DB
:102E4000FB689B687B617B6923F47F437B613B6804
:102E50001A027B681A43BB6813437A6913437B6188
:102E6000FB687A699A6000BF1C37BD4680BC70471A
:102E700080B485B000AF786039607B6893F83C30EF
:102E8000012B01D1022346E07B68012283F83C201C
:102E90007B68022283F83D207B681B685B68FB60CF
:102EA0007B681B689B68BB60FB6823F07003FB605A
:102EB0003B681B68FA681343FB607B681B68FA6811
:102EC0005A607B681B68164A93420ED07B681B6869
:102ED000B3F1804F09D07B681B68124A934204D03B
:102EE0007B681B68104A93420CD1BB6823F08003B7
:102EF000BB603B685B68BA681343BB607B681B6858
:102F0000BA689A607B68012283F83D207B680022C2
:102F100083F83C20002318461437BD4680BC704718
:102F2000002C014000040040000800400EB46FF087
:102F3000004110B500249DB01FAB02900690079190
:102F400004910948094953F8042B0591006802A926
:102F500001931B9400F092F9029B1C701DB0BDE818
:102F6000104003B0704700BF1C0000200802FFFFA4
:102F700003460244934200D1704703F8011BF9E76E
:102F8000014B1868704700BF1C00002070B5002678
:102F90000C4D0D4C641BA410A64209D100F076FC28
:102FA00000260A4D0A4C641BA410A64205D170BD30
:102FB00055F8043B98470136EEE755F8043B98472F
:102FC0000136F2E7C0590008C0590008C05900088E
:102FD000C45900087047704738B50546002940D0ED
:102FE00051F8043C0C1F002BB8BFE41800F0DEF8C9
:102FF0001C4A136833B9636014602846BDE8384042
:1030000000F0DAB8A34208D9206821188B4201BF2A
:1030100019685B6809182160EDE71A465B680BB117
:10302000A342FAD911685018A0420BD1206801447C
:10303000501883421160E0D118685B680844106042
:103040005360DAE702D90C232B60D6E720682118F9
:103050008B4201BF19685B68091821606360546086
:10306000CBE738BD9806002070B50F4E0C4631688E
:10307000054611B900F0A8FB30602146284600F053
:10308000A3FB431C03D14FF0FF34204670BDC41C8A
:1030900024F00304A042F8D0211A284600F094FB43
:1030A0000130F2D1EFE700BF940600202DE9F8438C
:1030B000CD1C25F0030508350C2D38BF0C25002D3F
:1030C000064601DBA94204D90C2333600020BDE889
:1030D000F883DFF8D48000F069F8D8F800301C4697
:1030E00044BB29463046FFF7BFFF431C044658D176
:1030F000D8F800402746002F43D1002C4BD023683E
:103100003946304604EB030900F05EFB814542D1AD
:10311000216830466D1A2946FFF7A6FF01303AD0E4
:1031200023682B442360D8F800305A6862BBC8F883
:1031300000700FE02268521B20D40B2A17D96119A6
:10314000A342256018BF5960636808BFC8F8001023
:1031500062514B60304600F02FF804F10B00231D44
:1031600020F00700C21A1CBF1B1AA350AFE7626809
:10317000A3420CBFC8F800205A60EBE723466468FE
:10318000AEE73C467F68B6E71A465B68A342FBD1D0
:1031900000235360DEE70C233046336000F00CF868
:1031A00094E70560D6E700BF980600200148FFF7C6
:1031B00011BF00BF900600200148FFF70CBF00BF01
:1031C000900600202DE9F0471F468E688246BE42D9
:1031D0000C4690460B682DD8B1F90C2012F4906F74
:1031E00026D06569096905EB4505A3EB010905EBE7
:1031F000D5757B1C4B446D109D4238BF1D46530551
:1032000027D52946FFF752FF064660B34A46216993
:1032100000F0F8FAA38923F4906343F08003A381BC
:1032200026614E4426603E466561A5EB0905A56012
:10323000BE4200D93E4632464146206800F0AAFA16
:103240000020A3689B1BA360236833442360BDE870
:10325000F0872A4600F0E4FA06460028E0D15046FE
:103260002169FFF7B9FE0C23CAF80030A3894FF09B
:10327000FF3043F04003A381E9E700002DE9F04F60
:1032800098468B8907461B060D4614469DB010D5FF
:103290000B6973B94021FFF709FF2860286130B935
:1032A0000C233B604FF0FF301DB0BDE8F08F402392
:1032B0006B610023099320238DF8293030234FF0D0
:1032C0000109CDF80C80DFF898818DF82A3023466B
:1032D0009A4613F8012B0AB1252AF9D1BAEB040B4F
:1032E0000BD05B46224629463846FFF76BFF01307C
:1032F00000F0A780099A5A4409929AF80030002BEE
:1033000000F09F8000234FF0FF32CDE905230AF142
:10331000010A049307938DF853301A9354460522FB
:1033200014F8011B4E4800F05FFA049AD8B9D00691
:1033300044BF20238DF85330110744BF2B238DF851
:1033400053309AF800302A2B15D0544600204FF005
:103350000A0C079A214611F8013B303B092B4BD947
:10336000B0B1079214E0A0EB080309FA03F313438A
:10337000A2460493D2E7039B191D1B680391002BFF
:10338000BBBF5B4242F0020207930793B8BF0492AF
:1033900023782E2B0AD163782A2B32D1039B023457
:1033A0001A1D1B68039243EAE3730593DFF8B4A088
:1033B00003225046217800F017FA38B14022049BCE
:1033C000A0EB0A00824013430134049314F8011B5C
:1033D000062225488DF8281000F006FA002836D07D
:1033E000224B1BBB039B073323F0070308330393D4
:1033F000099B334409936AE70C4601200CFB023217
:10340000A8E700234FF00A0C194601340593204623
:1034100010F8012B303A092A03D9002BC6D00591A8
:10342000C4E7044601230CFB0121F0E703AB009342
:103430002A4638460E4B04A9AFF30080421C0646CC
:10344000D6D1AB895B063FF52DAF09982CE703ABCE
:1034500000932A463846064B04A900F07DF8EDE7B4
:103460008A5900089059000894590008000000008B
:10347000C53100082DE9F047164698468A680B6961
:1034800007469342B8BF1346336091F843200C4679
:10349000DDF820900AB1013333602368990642BFFA
:1034A000336802333360256815F0060506D104F150
:1034B000190AE36832689B1AAB422BDC94F843305C
:1034C0002268003B18BF0123920630D4414638469B
:1034D00004F14302C847013023D02368226903F076
:1034E0000603042B14BF002533684FF0000608BF05
:1034F000E56804F11A0408BFED1A54F8123C08BF3D
:1035000025EAE5759342C4BF9B1AED18B5421AD15E
:10351000002008E00123524641463846C8470130A2
:1035200003D14FF0FF30BDE8F0870135C1E730200F
:10353000E11881F843005A1C94F8451022440233E4
:1035400082F84310C2E70123224641463846C84765
:103550000130E6D00136D9E72DE9FF470F7E9146CD
:10356000782F80460C469A460C9E01F1430207D8FC
:10357000622F0AD8002F00F0D180582F00F0B880B9
:1035800004F1420684F842703AE0A7F16303152B78
:10359000F6D801A151F823F0F135000805360008EE
:1035A0008135000881350008813500088135000823
:1035B000053600088135000881350008813500088E
:1035C00081350008033700082F360008BD36000893
:1035D000813500088135000825370008813500084D
:1035E0002F3600088135000881350008C5360008EF
:1035F00033681A1D1B68326004F1420684F84230B9
:1036000001239CE033682068191D3160060601D54E
:103610001D6803E04506FBD5B3F90050002D03DA21
:103620002D236D4284F843300A23584811E0216865
:103630003368080653F8045B02D4490648BFADB2AC
:103640006F2F336014BF0A2308235048002184F8E9
:1036500043106668002EA66005DB21682E4321F02A
:10366000040121604BD01646B5FBF3F103FB115763
:10367000C75D06F8017D2F46BB420D46F4D9082BE5
:103680000BD12368DF0708D5236961689942DEBF43
:10369000302306F8013C06F1FF36921B22614B46AF
:1036A00021464046CDF800A003AAFFF7E3FE013013
:1036B0004AD14FF0FF3004B0BDE8F087236843F0F3
:1036C000200323607827324884F8457023683168E6
:1036D0001F0651F8045B02D45F0648BFADB23160EB
:1036E000D90744BF43F0200323601DB11023ADE789
:1036F0002648E9E7236823F020032360F6E716460F
:10370000BDE733682568181D616930602E061B68A7
:1037100001D5196002E06806FBD519800023164622
:103720002361BCE7336800211A1D32601E6862689D
:10373000304600F059F808B1801B6060636823616F
:10374000002384F84330AAE73246494640462369BD
:10375000D0470130ADD023689B0713D4E068039BAA
:103760009842B8BF1846A6E701233246494640466C
:10377000D04701309DD00135E36803995B1AAB4215
:10378000F2DCEBE7002504F11906F5E79B59000888
:10379000AC590008884210B501EB020402D98442FA
:1037A000234607D8431EA14208D011F8012B03F885
:1037B000012FF8E7014602448A4200D110BD13F8F8
:1037C000014D02F8014DF7E738B50023054D0446D9
:1037D00008462B60FDF7ACFC431C02D12B6803B1FB
:1037E000236038BD8C060020034610B5C9B20244E0
:1037F0009342184601D1002003E0047801338C4243
:10380000F6D110BD0A44914200F1FF3300D1704758
:1038100010B511F8014B914203F8014FF9D110BDD9
:103820002DE9F041074614460D4621B91146BDE881
:10383000F041FFF73BBC2AB9FFF7CEFB25462846EF
:10384000BDE8F08100F01AF88442064602D8B4EBD5
:10385000500FF4D821463846FFF728FC804608B9B7
:103860004546ECE7B4422246294628BF3246FFF7D8
:10387000C9FF29463846FFF7AFFBF1E751F8043C92
:10388000181F002BBCBF0B58C0187047F8B500BFFD
:10389000F8BC08BC9E467047F8B500BFF8BC08BC31
:0438A0009E46704789
:1038A40044697374616E6365000000002564202020
:1038B40020200000000000000000000000000000C4
:1038C40000000000000000000000000000000000F4
:1038D40000000000000000000000000C000C000CC0
:1038E400000C000C000C000C000C000C000C000C74
:1038F4000000000C000C0000000000000000001B91
:10390400001B001B001B001B000000000000000047
:1039140000000000000000000000000000000000A3
:1039240000008019801980198019C07FC07F801918
:103934000033C07FC07F0033003300330033000006
:10394400000000000000001E003F807580650074C8
:10395400003C001E00078005806580658075003F7F
:10396400001E0004000400000000007000D840D8CD
:10397400C0D880D900730006000C801BC036C06616
:10398400C046C00680030000000000000000001EC6
:10399400003F003300330033001E000CC03CC066FF
:1039A400806380618063C03E801C000000000000D2
:1039B4000000000C000C000C000C000C00000000C7
:1039C40000000000000000000000000000000000F3
:1039D400000000008000000100030006000600044F
:1039E400000C000C000C000C000C000C0004000681
:1039F4000006000300018000002000100018000CE5
:103A0400000C00040006000600060006000600067E
:103A14000004000C000C0018001000200000000C32
:103A2400002D003F001E00330000000000000000D5
:103A34000000000000000000000000000000000082
:103A4400000000000000000C000C000C000CC0FF83
:103A5400C0FF000C000C000C000C00000000000073
:103A64000000000000000000000000000000000052
:103A74000000000000000000000000000000000C36
:103A8400000C000400040008000000000000000016
:103A940000000000000000000000001E001E0000E6
:103AA4000000000000000000000000000000000012
:103AB4000000000000000000000000000000000002
:103AC400000000000000000C000C000000000000DA
:103AD40000000003000300030006000600060006C1
:103AE400000C000C000C000C00180018001800005A
:103AF400000000000000001E003F00338061806170
:103B04008061806D806D8061806180610033003FE1
:103B1400001E00000000000000000006000E001E51
:103B24000036002600060006000600060006000611
:103B34000006000600060000000000000000001E51
:103B4400003F807380618061800100030006000CE7
:103B5400001800300060807F807F000000000000BB
:103B64000000001C003E006300630003000E000E12
:103B740000038001800180618073003F001E00000B
:103B84000000000000000006000E000E001E001ED3
:103B94000016003600360066807F807F000600062F
:103BA40000060000000000000000007F007F0060AD
:103BB40000600060006E007F80638001800180618E
:103BC4008073003F001E0000000000000000001E83
:103BD400003F803380610060006E007F80738061ED
:103BE400806180618033003F001E000000000000FF
:103BF4000000807F807F8001000300030006000630
:103C0400000C000C000C000800180018001800003C
:103C1400000000000000001E003F8063806180619E
:103C24000021001E003F8061806180618061003F4F
:103C3400001E0000000000000000001E003F007392
:103C44008061806180618073803F801D800180611C
:103C54000073003F001E0000000000000000000090
:103C6400000000000000000C000C00000000000038
:103C7400000000000000000C000C00000000000028
:103C8400000000000000000000000000000C000C18
:103C940000000000000000000000000C000C000404
:103CA4000004000800000000000000008000800301
:103CB400000E003800600038000E80038000000011
:103CC40000000000000000000000000000000000F0
:103CD4000000807F807F00000000807F807F0000E4
:103CE40000000000000000000000000000000000D0
:103CF4000000000000400070001C00078001000765
:103D0400001C0070004000000000000000000000E3
:103D14000000001F803FC071C060C000C00180036C
:103D24000007000E000C000C0000000C000C00004A
:103D3400000000000000001E003F8031807180639D
:103D4400806F806D806D806F806700600032003E00
:103D5400001C0000000000000000000E000E001B0C
:103D6400001B001B001B80318031803F803F80316D
:103D7400C060C060C0600000000000000000007C63
:103D8400007E0063006300630063007E007E0063C6
:103D9400806180618063007F007E0000000000007D
:103DA4000000001E003F8031806100600060006000
:103DB40000600060006080618031003F001E0000F0
:103DC400000000000000007C007F006380638061CD
:103DD4008061806180618061806100630063007E36
:103DE400007C0000000000000000807F807F0060F5
:103DF400006000600060007F007F00600060006081
:103E04000060807F807F0000000000000000807F51
:103E1400807F0060006000600060007F007F0060C1
:103E240000600060006000600060000000000000AE
:103E34000000001E003F803180610060006000606F
:103E440080638063806180618031803F001E000058
:103E540000000000000080618061806180618061F9
:103E64008061807F807F806180618061806180610A
:103E740080610000000000000000003F003F000CD3
:103E8400000C000C000C000C000C000C000C000CCE
:103E9400000C003F003F0000000000000000800113
:103EA4008001800180018001800180018001800106
:103EB400806180618073003F001E000000000000EC
:103EC4000000C0608061006300660066006C0078DA
:103ED400007C00660066006380618061C060000051
:103EE40000000000000000600060006000600060EE
:103EF4000060006000600060006000600060807F1F
:103F0400807F0000000000000000C071C071C07B11
:103F1400C07AC06AC06AC06EC064C060C060C0605D
:103F2400C060C060C060000000000000000080713C
:103F34008071807980798079806D806D806D8065F5
:103F440080678067806780638063000000000000F2
:103F54000000001E003F0033806180618061806149
:103F640080618061806180610033003F001E000039
:103F7400000000000000007E007F8063806180619B
:103F840080618063007F007E0060006000600060EC
:103F940000600000000000000000001E003F00332D
:103FA40080618061806180618061806180658067FB
:103FB4000033803F401E0000000000000000007E2F
:103FC400007F8063806180618063007F007E006683
:103FD4000063006380618061C06000000000000035
:103FE4000000000E001F8031803100300038001EB8
:103FF40000078003806180618031003F001E000063
:10400400000000000000C0FFC0FF000C000C000C0A
:10401400000C000C000C000C000C000C000C000C3C
:10402400000C0000000000000000806180618061DD
:104034008061806180618061806180618061806174
:104044008073003F001E0000000000000000C060FC
:10405400C060C060803180318031001B001B001BB8
:10406400001B000E000E000E000400000000000003
:104074000000C0C0C0C0C0C0C0C0C0C0C0CC804C64
:10408400804C805E80528052807380618061000029
:10409400000000000000C0C0806080610033003B6D
:1040A400001E000C000C001E001F003B807180618C
:1040B400C0C00000000000000000C0C0806180613A
:1040C40000330033001E001E000C000C000C000C1A
:1040D400000C000C000C0000000000000000803FF9
:1040E400803F8001000300030006000C000C001850
:1040F400001800300060807F807F00000000000016
:10410400000F000F000C000C000C000C000C000C45
:10411400000C000C000C000C000C000C000C000C3B
:10412400000F000F0000001800180018000C000C0D
:10413400000C000C00060006000600060003000345
:104144000003000000000000001E001E0006000620
:10415400000600060006000600060006000600062B
:104164000006000600060006001E001E0000000CEB
:10417400000C001E001200330033806180610000D7
:10418400000000000000000000000000000000002B
:10419400000000000000000000000000000000001B
:1041A400000000000000000000000000000000000B
:1041B400E0FF0000000000380018000C00000000C0
:1041C40000000000000000000000000000000000EB
:1041D40000000000000000000000000000000000DB
:1041E4000000001F803F80618001801F803F80614C
:1041F4008063807FC0380000000000000000006081
:10420400006000600060006E007F807380618061E8
:10421400806180618073007F006E000000000000F8
:1042240000000000000000000000001E003F80733A
:1042340080610060006080618073003F001E0000A8
:104244000000000000008001800180018001801DC9
:10425400803F807380618061806180618073803F72
:10426400801D0000000000000000000000000000AD
:104274000000001E003F00738061807F807F00602B
:104284008071003F001E0000000000000000C00715
:10429400C00F000C000C807F807F000C000C000C11
:1042A400000C000C000C000C000C000000000000CE
:1042B4000000000000000000801D803F80738061CA
:1042C4008061806180618073803F801D8001806394
:1042D400007F003E00000060006000600060006F2E
:1042E400807F807180618061806180618061806194
:1042F40080610000000000000000000600060000CD
:104304000000003E003E000600060006000600060F
:10431400000600060006000000000000000600067B
:1043240000000000003E003E0006000600060006F5
:10433400000600060006000600060046007E003C5B
:10434400000000600060006000608061006300663F
:10435400006C007C0076006300638061C060000034
:10436400000000000000003E003E000600060006BB
:104374000006000600060006000600060006000609
:104384000006000000000000000000000000000023
:10439400000080DDC0FFC0CEC0CCC0CCC0CCC0CC3F
:1043A400C0CCC0CCC0CC0000000000000000000065
:1043B400000000000000006F807F807180618061D8
:1043C4008061806180618061806100000000000084
:1043D40000000000000000000000001E003F807389
:1043E40080618061806180618073003F001E0000F5
:1043F400000000000000000000000000006E007FCC
:10440400807380618061806180618073007F006E51
:104414000060006000600060000000000000000018
:10442400801D803F807380618061806180618073C2
:10443400803F801D80018001800180010000000018
:104444000000000000000067803F003900300030A9
:104454000030003000300030003000000000000068
:1044640000000000000000000000001E803F80618A
:104474000060007F803F80018061007F001E00009B
:104484000000000000000000000800180018007F71
:10449400007F001800180018001800180018801F6A
:1044A400800F000000000000000000000000000079
:1044B40000008061806180618061806180618061D1
:1044C4008063807F803D0000000000000000000049
:1044D400000000000000C060803180318031001B8A
:1044E400001B001B000E000E000600000000000070
:1044F4000000000000000000000080DD80DD80DDA1
:104504000055005500550077007700220022000076
:1045140000000000000000000000000000008061B6
:1045240000330033001E000C000C001E0033003367
:104534008061000000000000000000000000000096
:1045440080618061803100330033001B001B001B3D
:10455400000E000E000E001C007C00700000000025
:10456400000000000000C07FC07F8001000300063F
:10457400000C00180030C07FC07F00000000000065
:104584008003800700060006000600060006000EF1
:10459400001C001C000E00060006000600060006B3
:1045A40080078003000600060006000600060006D9
:1045B40000060006000600060006000600060006C7
:1045C40000060006000600060038003C000C000C43
:1045D400000C000C000C000E00070007000E000C7D
:1045E400000C000C000C000C003C00380000000023
:1045F400000000000000000000008038807F0047B9
:1046040000000000000000000000000000000000A6
:104614000000000000000000000000000000000096
:104624000000000000000000000000000000000086
:104634000000000000000000000000000000000076
:1046440000000000E003E003E003E003E003E00314
:10465400E003E003C003C003C001C001C001C00106
:10466400C001000000000000E003E003E0030000DC
:1046740000000000000000003C1E3C1E3C1E3C1ECE
:104684003C1E3C1E3C1E0000000000000000000018
:104694000000000000000000000000000000000016
:1046A400000000000000000000000000CE01CE0366
:1046B400DE039E039C039C07FF3FFF7F3807380FF0
:1046C400780F780F780EFFFFFFFFF01EF01CE01C40
:1046D400E03CE03DE0390000000000000000000084
:1046E400FC03FE0FEE1FE01EE01EE01EE01EE01FB6
:1046F400E00FE007F003FC01FE01FE01FE01FE01F4
:10470400FE01FE01FE3DFC3FF00FE001E001000070
:1047140000000000033E07F78FE78EE79EE3BCE34B
:10472400B8E7F8E7F0F7E03FC001FF03FF07F3073E
:10473400F30FF31EF33CF338F3787FF03FE000000F
:104744000000000000000000E007F80F780F781F59
:10475400781F781F780FF00FE00F801FC37FC3FB13
:10476400E7F3F7F1F7F0FFF07FF03EF87F7CFF3FCF
:10477400EF1F00000000000000000000E003E00361
:10478400E003E003E003C003C001000000000000F8
:104794000000000000000000000000000000000015
:1047A4000000000000000000000000000000000005
:1047B4003F007C00F001E001C003C00780078007D0
:1047C400800F000F000F000F000F000F000F800F6D
:1047D40080078007C007C003E001F0017C003F00B0
:1047E4000F000000007E001FC007C003E001F001BD
:1047F400F000F000F8007800780078007800780085
:104804007800F800F000F000F001E001C003C007F8
:10481400001F007E00780000E003C003C001CE3911
:10482400FF3F7F3F20037003F807780F3C1F3806D3
:104834000000000000000000000000000000000074
:104844000000000000000000000000000000000064
:104854000000000000000000C001C001C001C00150
:10486400C001C001C001FFFFFFFFC001C001C001C2
:10487400C001C001C00100000000000000000000F1
:104884000000000000000000000000000000000024
:104894000000000000000000000000000000000014
:1048A4000000E003E003E003E003E001E001E001D5
:1048B400C0018003000000000000000000000000B0
:1048C40000000000000000000000FE3FFE3F00006A
:1048D40000000000000000000000000000000000D4
:1048E40000000000000000000000000000000000C4
:1048F40000000000000000000000000000000000B4
:1049040000000000000000000000E003E003E003FA
:10491400E003000000000000000000000F000F0092
:104924001E001E003C003C0078007800F000F000FF
:10493400E001E001C003C00380078007000F000FFF
:10494400001E001E003C003C0078007800F00000CF
:10495400F007F80F7C1F3E3E1E3C1F7C1F7C0F7827
:104964000F780F780F780F780F780F781F7C1F7CE3
:104974001E3C3E3E7C1FF80FF007000000000000C4
:1049840000000000F000F007F03FF03FF001F001FC
:10499400F001F001F001F001F001F001F001F0018B
:1049A400F001F001F001F001F001FF3FFF3F0000D2
:1049B4000000000000000000E00FF83F7C3C3C00D9
:1049C4003E003E003E003C003C007C00F800F0014C
:1049D400E003C0078007000F001E003E003CFE3FBE
:1049E400FE3F00000000000000000000F00FF81F70
:1049F4007C1C3E003E003E003C003C00F800F00FF2
:104A0400F80F7C003E001E001E001E001E003E002B
:104A14007C1CF81FE01F00000000000000000000E4
:104A24007800F800F800F801F803F807F807780FA1
:104A3400781E781E783C78787878FFFFFFFF78003E
:104A4400780078007800780078000000000000000A
:104A540000000000FC1FFC1FFC1F001E001E001EA7
:104A6400001E001EE01FF81FFC007C003E003E00FC
:104A74001E003E003E003C007C1CF81FE01F0000AE
:104A84000000000000000000FC01FE078E0F001F64
:104A9400001E003E003C003CF83DFC3F3E7F1F7E74
:104AA4000F3C0F3C0F3C0F3C0F3E1F1E3E1FFC0FE4
:104AB400F00300000000000000000000FF3FFF3F83
:104AC400FF3F0F001E001E003C0038007800F0007D
:104AD400F000E001E001C003C0038007800F800FF5
:104AE400000F001F001F0000000000000000000075
:104AF400F807FC0F3E1F1E1E1E3E1E3E1E1E3C1FC0
:104B0400F80FF007F80FFC1E3E3E1F3C1F7C0F7C85
:104B14000F7C1F3C3E3FFC1FF0070000000000001C
:104B240000000000F007F80F7C1E3E3C1E3C1F7C7A
:104B34001F7C1F7C1F7C1F3C3F3EFF1FEF071F0095
:104B44001E001E003E003C00F838F03FE01F00004D
:104B54000000000000000000000000000000000051
:104B640000000000E003E003E003E00300000000B5
:104B740000000000000000000000E003E003E00388
:104B8400E00300000000000000000000000000003E
:104B94000000000000000000E003E003E003E00385
:104BA4000000000000000000000000000000E0031E
:104BB400E003E003E003E001E001E001C00380035F
:104BC40000000000000000000000000003000F00CF
:104BD4003F00FC00F003C00F003F00FE003FC00F89
:104BE400F003FC003F000F00030000000000000081
:104BF40000000000000000000000000000000000B1
:104C04000000000000000000FFFFFFFF00000000A4
:104C14000000FFFFFFFF0000000000000000000094
:104C24000000000000000000000000000000000080
:104C34000000000000E000F8007E801FE007F8019B
:104C44007E001F007E00F801E007801F007E00F850
:104C540000E000000000000000000000F01FFC3F26
:104C64003E381F381F381E001E003C007800F0003C
:104C7400E001C003C003C007C0070000000000003B
:104C8400C007C007C00700000000000000000000CB
:104C9400F803FE0F1E1F0F3E7F3CFF78EF79C773AA
:104CA400C7F38FF38FF38FF39FF39FF3FF73FF7BB0
:104CB400F779003C1C1FFC0FF80300000000000003
:104CC40000000000000000000000E003E003F00723
:104CD400F007F007780F780F7C0E3C1E3C1E3E3C1C
:104CE400FE3FFF3F1F780F780FF007F007F000003A
:104CF4000000000000000000000000000000F83F79
:104D0400FC3F3E3C1E3C1E3C1E3C3E3C7C3CF03F7B
:104D1400F83F7E3C1F3C1F3C0F3C0F3C1F3CFE3FBA
:104D2400F83F000000000000000000000000000048
:104D34000000FF01FF07871F003E003C007C007855
:104D44000078007800780078007C007C003E003F0A
:104D5400831FFF07FF0100000000000000000000A7
:104D6400000000000000F07FFC7F7E781F781F7831
:104D74000F780F780F780F780F780F780F780F78F7
:104D84001F781E787E78F87FE07F00000000000026
:104D940000000000000000000000FF3FFF3F003E55
:104DA400003E003E003E003E003EFE3FFE3F003E11
:104DB400003E003E003E003E003EFF3FFF3F00003D
:104DC4000000000000000000000000000000FF1FC1
:104DD400FF1F001E001E001E001E001E001EFF1FDF
:104DE400FF1F001E001E001E001E001E001E001ECF
:104DF400001E000000000000000000000000000091
:104E04000000FE03FF0F871F003E007C007C00783B
:104E140000F800F87FF87FF80F780F7C0F7C0F3EC6
:104E24008F1FFF0FFE0300000000000000000000C1
:104E34000000000000001F7C1F7C1F7C1F7C1F7C67
:104E44001F7C1F7C1F7CFF7FFF7F1F7C1F7C1F7CC0
:104E54001F7C1F7C1F7C1F7C1F7C00000000000047
:104E640000000000000000000000FF3FFF3FE003DF
:104E7400E003E003E003E003E003E003E003E00316
:104E8400E003E003E003E003E003FF3FFF3F000033
:104E94000000000000000000000000000000FC1FF3
:104EA400FC1F7C007C007C007C007C007C007C007F
:104EB4007C007C007C007C0078007800F838F03FAF
:104EC400C03F0000000000000000000000000000DF
:104ED40000001F3C1E3C3C3C783CF03CE03DE03F85
:104EE400C03F803FC03FE03FF03DF03C783C7C3C1D
:104EF4003E3C1F3C0F3C000000000000000000008E
:104F0400000000000000003E003E003E003E003E67
:104F1400003E003E003E003E003E003E003E003E9D
:104F2400003E003E003EFF3FFF3F00000000000047
:104F3400000000000000000000001FF81FFC1FFC20
:104F44003FFE3FFE3FFE7FFF77FF77FFF7F7E7F770
:104F5400E7F3E7F3C7F307F007F007F007F0000003
:104F640000000000000000000000000000000F7CB2
:104F74000F7C0F7E0F7F0F7F8F7F8F7FCF7FEF7B25
:104F8400EF79FF79FF78FF787F783F783F781F7853
:104F94001F78000000000000000000000000000076
:104FA4000000F007FC1F3E3E1F7C0F780F780FF8BF
:104FB4000FF80FF80FF80FF80FF80F780F781F7C21
:104FC4003E3EFC1FF007000000000000000000004F
:104FD400000000000000FC3FFF3F1F3E0F3E0F3E5D
:104FE4000F3E0F3E1F3E3F3EFC3FF03F003E003E63
:104FF400003E003E003E003E003E00000000000077
:1050040000000000000000000000F007FC1F3E3E0E
:105014001F7C0F780F780FF80FF80FF80FF80FF8C0
:105024000FF80F780F781F7C3E3EFC1FF8077C00BA
:105034003F000F0003000000000000000000F03FEC
:10504400FC3F7E3C3E3C1E3C1E3C3E3C3C3CFC3C0F
:10505400F03FE03FF03DF83C7C3C3E3C1E3C1F3CB6
:105064000F3C0000000000000000000000000000F1
:105074000000FC07FE1F0E3E003C003C003C003ECE
:10508400C01FF80FFE037F001F000F000F001F203A
:105094003E3CFC3FF01F0000000000000000000048
:1050A400000000000000FFFFFFFFE003E003E00357
:1050B400E003E003E003E003E003E003E003E003D4
:1050C400E003E003E003E003E0030000000000006D
:1050D400000000000000000000000F7C0F7C0F7C2B
:1050E4000F7C0F7C0F7C0F7C0F7C0F7C0F7C0F7C64
:1050F4000F7C0F7C1E3C1E3C3E3EFC1FF007000054
:10510400000000000000000000000000000007F0A4
:1051140007F007F80F780F7C1E3C1E3C1E3E3C1E19
:105124003C1F781F780FF80FF007F007F007E00333
:10513400E003000000000000000000000000000088
:10514400000003E003F003F007F0E7F3E7F3E7F30D
:10515400E773F77BF77FFF7F7F7F7F7F7E7F7E3FD5
:105164003E3E3E3E3E3E00000000000000000000C7
:1051740000000000000007F80F7C1E3E3E3E3C1F6E
:10518400F80FF007E007E003E003F007F80F7C0FE7
:105194007C1E3E3C1F780F780FF0000000000000DA
:1051A4000000000000000000000007F807780F7CF2
:1051B4001E3C1E3E3C1F780FF80FF007E003E0038F
:1051C400E003E003E003E003E003E003E0030000A6
:1051D4000000000000000000000000000000FF7F4D
:1051E400FF7F0F001F003E007C00F800F000E0018C
:1051F400E003C007800F000F001E003E007CFF7F0D
:10520400FF7F00000000000000000000FF0780078F
:105214008007800780078007800780078007800752
:105224008007800780078007800780078007800742
:1052340080078007800780078007FF07FF070000BB
:1052440000780078003C003C001E001E000F000F98
:1052540080078007C003C003E001E001F000F00014
:10526400780078003C003C001E001E000F000F0078
:1052740007000000F07FF000F000F000F000F00004
:10528400F000F000F000F000F000F000F000F0009A
:10529400F000F000F000F000F000F000F000F0008A
:1052A400F000F07FF07F0000C000C001C001E00307
:1052B400E003F007F0077807780F380F3C1E3C1E18
:1052C4001E3C1E3C0F380F780778000000000000D9
:1052D40000000000000000000000000000000000CA
:1052E40000000000000000000000000000000000BA
:1052F40000000000000000000000000000000000AA
:10530400000000000000FFFFFFFF0000000000009D
:10531400F000000000000000000000000000000099
:105324000000000000000000000000000000000079
:105334000000000000000000000000000000000069
:105344000000000000000000000000000000000059
:10535400F80FFC3F7C3C3E003E003E00FE07FE1F73
:105364003E3E3E7C3E783E7C7E7CFF3FCF1F00006D
:105374000000000000000000003C003C003C003C39
:10538400003C003CF83DFE3F3E3F1F3E0F3C0F3CBF
:105394000F3C0F3C0F3C0F3C1F3C1E3C3E3FFC3F70
:1053A400F03B0000000000000000000000000000CE
:1053B4000000000000000000FE03FF0F871F003EF6
:1053C400003E003C007C007C007C003C003E003E33
:1053D400871FFF0FFE030000000000000000000014
:1053E4001F001F001F001F001F001F00FF07FF1FDB
:1053F4003F3E1F3C1F7C1F7C1F7C1F781F781F7C37
:105404001F7C3F3C7F3EFF1FDF0F000000000000B9
:105414000000000000000000000000000000000088
:10542400F803FC0F3E1F1E3E1F3C1F7CFF7FFF7FC7
:10543400007C007C003C003E071FFF0FFE030000C1
:105444000000000000000000FF01E103C003C007EA
:10545400C007C007FF7FFF7FC007C007C007C007A2
:10546400C007C007C007C007C007C007C007C00700
:10547400C007000000000000000000000000000061
:105484000000000000000000EF07FF1F7F3E1F3CEC
:105494001F7C1F7C1F781F781F781F7C1F7C3F3C5C
:1054A4007F3EFF1FDF0F1E001E001E007C38F83FEA
:1054B400003C003C003C003C003C003CFC3DFE3F0A
:1054C4009E3F1F3F1F3E1F3C1F3C1F3C1F3C1F3C79
:1054D4001F3C1F3C1F3C1F3C1F3C00000000000001
:1054E40000000000F001F0010000000000000000D6
:1054F400E07FE07FE001E001E001E001E001E001A4
:10550400E001E001E001E001E001E001E001000070
:105514000000000000000000F800F8000000000097
:1055240000000000F83FF83FF800F800F800F80029
:10553400F800F800F800F800F800F800F800F800A7
:10554400F800F800F800F000F071E07F003C003C47
:10555400003C003C003C003C1F3C3E3C7C3CF83C96
:10556400F03DE03DC03FC03FE03FF03DF83C7C3CB7
:105574003E3C1F3C1F3C00000000000000000000F7
:10558400F07FF001F001F001F001F001F001F00111
:10559400F001F001F001F001F001F001F001F0017F
:1055A400F001F001F001F001F00100000000000042
:1055B40000000000000000000000000000000000E7
:1055C4009EF7FFFFFFFFFFFFE7FBE7F9C7F1C7F116
:1055D400C7F1C7F1C7F1C7F1C7F1C7F1C7F10000BF
:1055E40000000000000000000000000000000000B7
:1055F40000000000FC3DFE3F9E3F1F3F1F3E1F3C3E
:105604001F3C1F3C1F3C1F3C1F3C1F3C1F3C1F3CBE
:105614001F3C00000000000000000000000000002B
:105624000000000000000000F007FC1F3E3E1F3C8D
:105634001F7C0F780F780F780F780F781F7C1F3C32
:105644003E3EFC1FF00700000000000000000000C8
:10565400000000000000000000000000F83DFE3FD4
:105664003E3F1F3E0F3C0F3C0F3C0F3C0F3C0F3C9A
:105674001F3C1E3E3E3FFC3FF83F003C003C003CCC
:10568400003C003C0000000000000000000000009E
:10569400EE07FE1F7E3E1E3C1E7C1E781E781E7882
:1056A4001E781E781E7C3E7C7E3EFE1FDE0F1E0092
:1056B4001E001E001E001E0000000000000000006E
:1056C400000000007F1FFF1FE71FC71F871F001F69
:1056D400001F001F001F001F001F001F001F001FCE
:1056E400001F000000000000000000000000000097
:1056F4000000000000000000FC07FE1F0E1E003E1C
:10570400003E003FE01FFC07FE003E001E001E009E
:105714003E3CFC3FF01F00000000000000000000C1
:10572400000000000000800780078007FF7FFF7FE4
:10573400800780078007800780078007800780072D
:1057440080078007C007FF03FF010000000000007E
:105754000000000000000000000000000000000045
:105764001E3C1E3C1E3C1E3C1E3C1E3C1E3C1E3C65
:105774001E3C1E3C3E3C7E3CFE3EFE1FDE0F0000F7
:105784000000000000000000000000000000000015
:105794000000000007F00F780F781E3C1E3C1E3EF0
:1057A4003C1E3C1E780F780FF00FF007F007E00363
:1057B400E003000000000000000000000000000002
:1057C400000000000000000003F0E3F1E3F3E7F35E
:1057D400F7F3F7F3F77F777F7F7F7F7F7F7F3E3E0F
:1057E4003E3E3E3E3E3E0000000000000000000041
:1057F4000000000000000000000000000F7C1E3EBE
:105804003C3E3C1FF80FF007F007E003F007F807F1
:10581400F80F7C1E3E3E1F3C1F7800000000000075
:105824000000000000000000000000000000000074
:1058340007F80F780F7C1E3C1E3C3C1E3C1E3C1F90
:10584400780FF80FF007F007E003E003C003C0038C
:10585400C0038007800F007F0000000000000000EC
:1058640000000000FF3FFF3F1F003E007C00F800E7
:10587400F001E003C007800F001F001E003CFF7F03
:10588400FF7F00000000000000000000FE01E003B4
:10589400C003C003C003C003E001E001E001C00194
:1058A400C003803F803FC003C001E001E001E0018C
:1058B400C003C003C003C003E003FE017E00000078
:1058C400C001C001C001C001C001C001C001C001CC
:1058D400C001C001C001C001C001C001C001C001BC
:1058E400C001C001C001C001C001C001C001C001AC
:1058F400C0010000C03FE003E001E001E001E0017D
:10590400C001C003C003C001E001FE00FE00E001CD
:10591400C001C003C003C001E001E001E001E001F7
:10592400E003C03F003F0000000000000000000052
:105934000000000000000000000000000000073F1D
:10594400C77FE773FFF17EF0000000000000000055
:105954000000000000000000000000000000000043
:10596400000000000102030406070809000000000B
:105974000102030402030405060708090A0B0C0DBF
:105984000E0F10100102232D302B2000686C4C00E8
:10599400656667454647003031323334353637382B
:1059A4003941424344454600303132333435363789
:0C59B40038396162636465660000000021
:0459C00035010008A5
:0459C40011010008C5
:1059C8000B120000B8380008101A0000144600082E
:1059D80000127A00100000000100000020000020E2
:1059E8000000000054050020BC050020240600200B
:1059F800000000000000000000000000000000009F
:105A0800000000000000000000000000000000008E
:105A1800000000000000000000000000000000007E
:0C5A280000000000000000000000000072
:040000050800128558
:00000001FF
